{
  "contractName": "Patent",
  "abi": [
    {
      "constant": false,
      "inputs": [
        {
          "name": "_title",
          "type": "string"
        },
        {
          "name": "_description",
          "type": "string"
        },
        {
          "name": "_scope",
          "type": "string"
        },
        {
          "name": "_rights",
          "type": "string"
        },
        {
          "name": "_expiryDate",
          "type": "string"
        },
        {
          "name": "_contentHash",
          "type": "string"
        },
        {
          "name": "_patentDate",
          "type": "string"
        },
        {
          "name": "_patentId",
          "type": "bytes32"
        }
      ],
      "name": "submitPatent",
      "outputs": [
        {
          "name": "",
          "type": "uint256"
        }
      ],
      "payable": false,
      "stateMutability": "nonpayable",
      "type": "function"
    },
    {
      "constant": true,
      "inputs": [
        {
          "name": "_patentId",
          "type": "bytes32"
        }
      ],
      "name": "getOwnerByFileHash",
      "outputs": [
        {
          "name": "",
          "type": "uint256"
        },
        {
          "name": "",
          "type": "string"
        },
        {
          "name": "",
          "type": "address"
        },
        {
          "name": "",
          "type": "string"
        },
        {
          "name": "",
          "type": "string"
        },
        {
          "name": "",
          "type": "string"
        }
      ],
      "payable": false,
      "stateMutability": "view",
      "type": "function"
    },
    {
      "constant": false,
      "inputs": [
        {
          "name": "_to",
          "type": "address"
        },
        {
          "name": "_patentId",
          "type": "bytes32"
        },
        {
          "name": "_transfer_date",
          "type": "string"
        }
      ],
      "name": "transferPatent",
      "outputs": [
        {
          "name": "",
          "type": "uint256"
        }
      ],
      "payable": false,
      "stateMutability": "nonpayable",
      "type": "function"
    }
  ],
  "bytecode": "0x60806040526000805560026001556003600255600460035534801561002357600080fd5b50611089806100336000396000f300608060405260043610610057576000357c0100000000000000000000000000000000000000000000000000000000900463ffffffff1680632f3597b01461005c5780634b597c8a1461028b5780634d5de00f14610336575b600080fd5b34801561006857600080fd5b50610275600480360381019080803590602001908201803590602001908080601f0160208091040260200160405190810160405280939291908181526020018383808284378201915050505050509192919290803590602001908201803590602001908080601f0160208091040260200160405190810160405280939291908181526020018383808284378201915050505050509192919290803590602001908201803590602001908080601f0160208091040260200160405190810160405280939291908181526020018383808284378201915050505050509192919290803590602001908201803590602001908080601f0160208091040260200160405190810160405280939291908181526020018383808284378201915050505050509192919290803590602001908201803590602001908080601f0160208091040260200160405190810160405280939291908181526020018383808284378201915050505050509192919290803590602001908201803590602001908080601f0160208091040260200160405190810160405280939291908181526020018383808284378201915050505050509192919290803590602001908201803590602001908080601f0160208091040260200160405190810160405280939291908181526020018383808284378201915050505050509192919290803560001916906020019092919050505061055e565b6040518082815260200191505060405180910390f35b34801561029757600080fd5b50610320600480360381019080803573ffffffffffffffffffffffffffffffffffffffff1690602001909291908035600019169060200190929190803590602001908201803590602001908080601f01602080910402602001604051908101604052809392919081815260200183838082843782019150505050505091929192905050506107e0565b6040518082815260200191505060405180910390f35b34801561034257600080fd5b506103656004803603810190808035600019169060200190929190505050610bbe565b60405180878152602001806020018673ffffffffffffffffffffffffffffffffffffffff1673ffffffffffffffffffffffffffffffffffffffff16815260200180602001806020018060200185810385528a818151815260200191508051906020019080838360005b838110156103e95780820151818401526020810190506103ce565b50505050905090810190601f1680156104165780820380516001836020036101000a031916815260200191505b50858103845288818151815260200191508051906020019080838360005b8381101561044f578082015181840152602081019050610434565b50505050905090810190601f16801561047c5780820380516001836020036101000a031916815260200191505b50858103835287818151815260200191508051906020019080838360005b838110156104b557808201518184015260208101905061049a565b50505050905090810190601f1680156104e25780820380516001836020036101000a031916815260200191505b50858103825286818151815260200191508051906020019080838360005b8381101561051b578082015181840152602081019050610500565b50505050905090810190601f1680156105485780820380516001836020036101000a031916815260200191505b509a505050505050505050505060405180910390f35b60006001600460008460001916600019168152602001908152602001600020600a015414156105915760015490506107d4565b3360046000846000191660001916815260200190815260200160002060000160006101000a81548173ffffffffffffffffffffffffffffffffffffffff021916908373ffffffffffffffffffffffffffffffffffffffff160217905550886004600084600019166000191681526020019081526020016000206001019080519060200190610620929190610f31565b50876004600084600019166000191681526020019081526020016000206002019080519060200190610653929190610f31565b50866004600084600019166000191681526020019081526020016000206003019080519060200190610686929190610f31565b508560046000846000191660001916815260200190815260200160002060040190805190602001906106b9929190610f31565b508460046000846000191660001916815260200190815260200160002060050190805190602001906106ec929190610f31565b5083600460008460001916600019168152602001908152602001600020600601908051906020019061071f929190610f31565b50826004600084600019166000191681526020019081526020016000206008019080519060200190610752929190610f31565b50826004600084600019166000191681526020019081526020016000206009019080519060200190610785929190610f31565b506001600460008460001916600019168152602001908152602001600020600a01819055506001600460008460001916600019168152602001908152602001600020600b018190555060005490505b98975050505050505050565b60006001600460008560001916600019168152602001908152602001600020600a0154141515610814576002549050610bb7565b3373ffffffffffffffffffffffffffffffffffffffff1660046000856000191660001916815260200190815260200160002060000160009054906101000a900473ffffffffffffffffffffffffffffffffffffffff1673ffffffffffffffffffffffffffffffffffffffff16141515610891576003549050610bb7565b8360046000856000191660001916815260200190815260200160002060000160006101000a81548173ffffffffffffffffffffffffffffffffffffffff021916908373ffffffffffffffffffffffffffffffffffffffff1602179055506004600084600019166000191681526020019081526020016000206002016004600085600019166000191681526020019081526020016000206002019080546001816001161561010002031660029004610949929190610fb1565b5060046000846000191660001916815260200190815260200160002060030160046000856000191660001916815260200190815260200160002060030190805460018160011615610100020316600290046109a5929190610fb1565b506004600084600019166000191681526020019081526020016000206004016004600085600019166000191681526020019081526020016000206004019080546001816001161561010002031660029004610a01929190610fb1565b506004600084600019166000191681526020019081526020016000206005016004600085600019166000191681526020019081526020016000206005019080546001816001161561010002031660029004610a5d929190610fb1565b506004600084600019166000191681526020019081526020016000206006016004600085600019166000191681526020019081526020016000206006019080546001816001161561010002031660029004610ab9929190610fb1565b50816004600085600019166000191681526020019081526020016000206009019080519060200190610aec929190610f31565b506004600084600019166000191681526020019081526020016000206008016004600085600019166000191681526020019081526020016000206008019080546001816001161561010002031660029004610b48929190610fb1565b506001600460008560001916600019168152602001908152602001600020600a01819055506001600460008560001916600019168152602001908152602001600020600b015401600460008560001916600019168152602001908152602001600020600b018190555060005490505b9392505050565b6000606060006060806060600080600460008a60001916600019168152602001908152602001600020600a01541415610c7057600254816040805190810160405280600d81526020017f666c65206e6f7420666f756e640000000000000000000000000000000000000081525090602060405190810160405280600081525060206040519081016040528060008152506020604051908101604052806000815250965096509650965096509650610f27565b600054600460008a6000191660001916815260200190815260200160002060000160009054906101000a900473ffffffffffffffffffffffffffffffffffffffff16600460008b60001916600019168152602001908152602001600020600801600460008c60001916600019168152602001908152602001600020600501600460008d600019166000191681526020019081526020016000206006016040805190810160405280600c81526020017f66696c652070726573656e74000000000000000000000000000000000000000081525093929190828054600181600116156101000203166002900480601f016020809104026020016040519081016040528092919081815260200182805460018160011615610100020316600290048015610ddb5780601f10610db057610100808354040283529160200191610ddb565b820191906000526020600020905b815481529060010190602001808311610dbe57829003601f168201915b50505050509250818054600181600116156101000203166002900480601f016020809104026020016040519081016040528092919081815260200182805460018160011615610100020316600290048015610e775780601f10610e4c57610100808354040283529160200191610e77565b820191906000526020600020905b815481529060010190602001808311610e5a57829003601f168201915b50505050509150808054600181600116156101000203166002900480601f016020809104026020016040519081016040528092919081815260200182805460018160011615610100020316600290048015610f135780601f10610ee857610100808354040283529160200191610f13565b820191906000526020600020905b815481529060010190602001808311610ef657829003601f168201915b505050505090509650965096509650965096505b5091939550919395565b828054600181600116156101000203166002900490600052602060002090601f016020900481019282601f10610f7257805160ff1916838001178555610fa0565b82800160010185558215610fa0579182015b82811115610f9f578251825591602001919060010190610f84565b5b509050610fad9190611038565b5090565b828054600181600116156101000203166002900490600052602060002090601f016020900481019282601f10610fea5780548555611027565b8280016001018555821561102757600052602060002091601f016020900482015b8281111561102657825482559160010191906001019061100b565b5b5090506110349190611038565b5090565b61105a91905b8082111561105657600081600090555060010161103e565b5090565b905600a165627a7a72305820b67e35e273898bd9189c68bd3c5ac6e8ebcf0c6fa7b0a4d72649b06f587843c40029",
  "source": "pragma solidity ^0.4.17;\n//pragma experimental ABIEncoderV2;\n\n\ncontract Patent {\n\n  uint SUCCESS = 0;\n  uint FILE_HASH_EXIST = 2;\n  uint FILE_HASH_NOT_FOUND=3;\n  uint FILE_NOT_BELONGS_TO_USER =4;\n  \n  struct Customer {\n  address owner;\n // string custname;\n // string addr;\n  string title;\n  string description;\n  string scope; //Public or private\n  string rights; //Selling, printing, editing\n  string expiryDate;\n  string contentHash;\n  bytes32 patentId;\n  string patentDate;\n  string transferDate;\n  uint   setFlag;\n  uint   ownershipNumber;\n  ///ownerList[] ownerlist;\n  }\n\nmapping(bytes32 => Customer)  custList;\n\n  function  submitPatent(string _title,\n      string _description,string _scope,string _rights,string _expiryDate,\n      string _contentHash, string _patentDate,bytes32 _patentId)\n  public returns (uint) {\n    //Do not allow multiple ownership of same file\n    if (custList[_patentId].setFlag == 1)\n    {\n      return FILE_HASH_EXIST;\n    }\n    //store content to map\n        custList[_patentId].owner    = msg.sender;\n       // custList[_contentHash].custname = _custname;\n       // custList[_contentHash].addr     = _addr;\n        custList[_patentId].title    = _title;\n        custList[_patentId].description = _description;\n        custList[_patentId].scope       = _scope;\n        custList[_patentId].rights      = _rights;\n        custList[_patentId].expiryDate  = _expiryDate;\n        custList[_patentId].contentHash = _contentHash;\n        custList[_patentId].patentDate  = _patentDate;\n        custList[_patentId].transferDate  = _patentDate;\n        custList[_patentId].setFlag     = 1;\n        custList[_patentId].ownershipNumber  = 1;\n        \n    return SUCCESS;\n  }\n  /* Method to get Customer details belongs to input ffile Hash*/\n  function getOwnerByFileHash (bytes32 _patentId)  public view returns (uint,string,address,string,string,string )\n  {\n    //Do not allow multiple ownership of same file\n    if (custList[_patentId].setFlag == 0)\n    {\n      address va;\n      return (FILE_HASH_NOT_FOUND,\"fle not found\",va,\"\",\"\",\"\");\n    }\n  //  return custList[_fileHash];\n  return (SUCCESS,\"file present\",custList[_patentId].owner,\n    custList[_patentId].patentDate,custList[_patentId].expiryDate,\n    custList[_patentId].contentHash );\n  }\n\n//Method to transfer ownershsip\n  function transferPatent (address _to,bytes32 _patentId,string _transfer_date)\n    public returns (uint)\n    {\n      //Make sure file hash is already exist\n      if (custList[_patentId].setFlag != 1)\n      {\n        return FILE_HASH_NOT_FOUND;\n      }\n      //make sure this request is from owner of this file\n      if (custList[_patentId].owner != msg.sender)\n      {\n      return FILE_NOT_BELONGS_TO_USER;\n      }\n\n      //Change the ownershsip\n      custList[_patentId].owner    = _to;\n      custList[_patentId].description = custList[_patentId].description;\n      custList[_patentId].scope       = custList[_patentId].scope;\n      custList[_patentId].rights      = custList[_patentId].rights;\n      custList[_patentId].expiryDate  = custList[_patentId].expiryDate;\n      custList[_patentId].contentHash = custList[_patentId].contentHash;\n      custList[_patentId].transferDate  = _transfer_date;\n      custList[_patentId].patentDate  = custList[_patentId].patentDate;\n      custList[_patentId].setFlag     = 1;\n      custList[_patentId].ownershipNumber  = custList[_patentId].ownershipNumber + 1;\n\nreturn SUCCESS;\n    }\n}",
  "sourcePath": "/Users/mukeshbhardwaj/Downloads/PatentCode/contracts/Patent.sol",
  "compiler": {
    "name": "solc",
    "version": "0.4.24+commit.e67f0147.Emscripten.clang"
  },
  "schemaVersion": "2.0.1",
  "updatedAt": "2019-02-28T06:54:53.592Z"
}